:020000042000DA
:1000000000980020A5040020AD040020C5040020B5
:1000100000000000000000000000000000000000E0
:10002000000000000000000000000000DD040020CF
:100030000000000000000000F5040020F70400208C
:10004000CB330020B33400200D310300A134002055
:10005000333400208D310300C5340020D334002018
:100060002B280020F904002019350020AD310300B1
:1000700057810200F9040020F9040020F90400204F
:10008000F9040020F9040020F90400207927002059
:100090007D27002081270020852700208927002038
:020000042000DA
:10016000320000002D0B0020A721002011050020E7
:10017000000000000000000063800200BD8002005B
:10018000BF0E0020FB8002001981020035810200B1
:100190005D81020029320020890F0020AB0E002073
:1001A000B50E002000000000000000003F0000002D
:1001B000F48B002000040000740B080048010000CC
:1001C0006807080000040000C80C080020050000B3
:1001D000000000002000000048000000580000005F
:1001E0006800000004010000160100002801000062
:1001F0002E010000202A00008E2E000001000000C9
:10020000881300003122002059480020174D00209B
:10021000D115002019280300A574020071310020B7
:1002200003000000D520020011050020010000009D
:10023000D74902000F490200893700202B4E0020C9
:10024000854F00206B50002007820200718202005F
:10025000C46C0020AD83020093840200418502003B
:1002600015860200378602005F860200758602004E
:10027000F9870200258902005D8A0200D38C020002
:10028000098D02000F900200438D0200278E0200AC
:10029000F98E0200478F0200110E0020D58F020058
:1002A000534B0020775102002F5202001000000033
:1002B00020030000803E000000000000000000005D
:020000042000DA
:1002C000504600030003983A6400F401B80B000C98
:1002D000B80B120030003000CD009A01120024004B
:1002E00030006400B0001800280012001200D0078F
:1002F0000000FFFF00000000000000000000000000
:100300001F000002444131343538302D30310000B7
:1003100000000000000000000000000000000000DD
:0403200000000000D9
:020000042000DA
:10034000FFFF010000C201000000000000000000EB
:100350000000F4010100010000070000000000009F
:10036000000000000000000000000000000000008D
:10037000000000000000000000000000000000007D
:10038000000000000000000000000000000000006D
:100390000000000000000000000044413134353806
:1003A000300000000000000000000000000000001D
:1003B000000000000000000000000000000000003D
:1003C000000000000000000000000000000000002D
:1003D0000000000000000000010000CAEA80D00711
:0403E000064064323D
:020000042000DA
:100440000348854605F012FF00480047C720020018
:10045000009800200F4906200880FF200E49013037
:1004600008600E4988683E2290432E308860002242
:10047000052000070280018A0F231B021943018215
:1004800001210748C90404C1401E0028FBDA62B6F6
:10049000704700000034005080E100E0003300505D
:1004A000FF0B00001548804715480047042071469F
:1004B000084203D0EFF3098012490847EFF30880A0
:1004C0001049084704207146084203D0EFF3098021
:1004D0000D490847EFF308800B490847042071468F
:1004E000084203D0EFF3098008490847EFF308807A
:1004F00006490847FEE7FEE7FEE700005504002036
:1005000041040020150500208D060020B30A0020BC
:100510007047000005200007018A04221143018270
:10052000018A022211430182018940221143018183
:10053000054A01211160418A012289088900D203FC
:10054000114341827047000080E200E04A48017890
:10055000002902D08021417070474849002008706E
:100560004749C870704744480178002902D081216A
:10057000417070474149012008704149C870704777
:100580003D480178002902D08221417070473B49E3
:10059000022008703A490120C8707047002804D032
:1005A000012803D0022802D1EAE7CFE7DBE7704752
:1005B000324900200978002904D0012903D00229FA
:1005C00000D102207047012070472B488178002914
:1005D00004D0491E0906090E817017D14278002106
:1005E000002A04D09207920F0270417004E0027852
:1005F000002A01D0521E02701206120E017005D0A0
:10060000012A02D0022A01D1BAE7ACE7704700B54F
:10061000194A9078401C90701078002805D1FFF797
:10062000C7FF431CFFF792FF137000BD1249012062
:10063000C870704710490020C87070470E48C078D5
:1006400070470020EFF31081012282F31088052209
:1006500012071289120605D40A48028901231A4397
:1006600002811846002900D0012181F310887047CB
:100670000548007870470000F41108005402080093
:10068000C60608000033005040120800FEE70000D4
:1006900010B500217C4C07E022461346521E92B250
:1006A000002BFAD1491C89B28142F5D310BD10B597
:1006B0000221012001F029FF0120FFF7E9FF10BD11
:1006C000F8B50024032636020223324604212046D0
:1006D000009401F024FF002201230521104600941C
:1006E00001F01DFF01250023324602212846009516
:1006F00001F015FF2F0209233A4600210120009442
:1007000001F00DFF01210A233A460846009401F04A
:1007100006FF0021072332460846009401F0FFFE41
:100720000623324619460020009401F0F8FE00220C
:10073000052307211046009401F0F1FE08233246FC
:1007400003210020009501F0EAFEFFF7B0FFF8BD9D
:1007500038B500254D4C009503226178207802239E
:10076000120201F0DCFE0095E178A078012300225E
:1007700001F0D5FE38BD454B187059709870DA708D
:10078000704710B500F052F810BD10B505242407CD
:10079000208A022188432082A08A0007FCD53C4899
:1007A0004188FF22013211434180A0888021084303
:1007B000A0800321092005F06BFD00F086F9FFF70A
:1007C0007FFF608A20210843608210BD3148416864
:1007D00006229143091D4160416801221143416095
:1007E0004168382211434160416840229143416091
:1007F000416803225202114341604168821511434E
:10080000416041680722D2021143416041680214ED
:1008100091434160011520480160204A1068FF2380
:100820001B04984310601E48016070473EB50325C5
:1008300001242D0200232A4608210220009401F001
:100840006EFE00232A4602211846009401F067FE3E
:100850000E490320891E4870002008700090019006
:1008600003460246014602900848801E02F00CF83A
:1008700002F0D9F80549C91E0870401C03D12102B5
:10088000880202F097F83EBDFB080000CF6F002001
:10089000200000500002004000E100E008E400E019
:1008A00080E200E0FEB5944D019117461E460024FB
:1008B0000090294605F0F2FC050005D033463A4683
:1008C00001990098A84704462046FEBDFFB581B0B7
:1008D0001F460E464D780C78002005F0E5FC0428F4
:1008E00024D000281DD121E08448816E2E20604351
:1008F000091888880207120F130005F0DBFC0705B2
:1009000005050F050F050F008204920E062A05D279
:100910007278012A12D0072210438880641C640771
:10092000640F28466D1EEDB20028DDD13B463146EE
:10093000039A019805F0C4FC05B0F0BD204605F00F
:10094000C5FC0020F8E770B56D480378021D002152
:100950006C4D07E0CC00165D002E01D12418A56077
:10096000491CC9B29942F5D370BD70B505460C4615
:10097000103C3F2005F098FC00280FD062488068AA
:10098000322806D961498D4201D03C2801D9002086
:1009900070BD21465C4805F09FFC06E0204605F04E
:1009A000A1FC01213F2005F0A3FC012070BD10B582
:1009B00053490B780A1D002005E0C400145D3F2C4C
:1009C00004D0401CC0B29842F7D310BD4D4AC000BD
:1009D00010324018826010BD028908894C49101AF3
:1009E00080B2884201D90120704700207047FFB5CE
:1009F00086780446300281B00E30009005F054FC39
:100A0000002801D0FF2652E00021442005F076FCAA
:100A1000404FB5007851442105F076FC0121009843
:100A200005F066FC79590298888079596088C880F9
:100A3000785922792030417CD20749084900D20FE9
:100A40001143417478590622A11D3B3005F062FC28
:100A500078596179403041707859062234300399D1
:100A600005F058FC795904982031887602980D28B1
:100A70001DD0294810230088009A81B2274805F02C
:100A80004FFC0546608828806079687228460622F7
:100A9000A11D0A3005F03EFCA0896880E089A8808D
:100AA000208AE880A07C2872284605F03FFC30466A
:100AB00042E781692039897F082905D2114A8900D6
:100AC0002032515881617047FEE70E4A1449403286
:100AD000002008CA401C08C11028FADB0120114977
:100AE000C00608601049CA691202120ACA610D499B
:100AF000803908607047000084430300D802080072
:100B000004060800F86C002080040800103400007F
:100B10003075000054050800600100200138000015
:100B20001084004080E100E000ED00E008B50524FD
:100B30002407608A80210843608200F032FA002591
:100B40000CE004216846009505F0F6FB002801D072
:100B500000F06CF904F032FE00280BD0208900066A
:100B600008D501208007006B000403D405F0EAFBE0
:100B7000C0070FD004F06CFE0028EFD172B602F06F
:100B800027FD04280FD0022814D0032812D00128F2
:100B900021D021E0042005F0DBFB064605F0DEFB5A
:100BA000002ED7D0CDE753480078012801D003208C
:100BB00000E0022000F012F8A08A800602D54E491B
:100BC0000820088030BF04F052FE4C48016904221E
:100BD0009143016100E030BF62B6BFE7F8B56946F6
:100BE000052508702D07298A04221143298204460D
:100BF0004348444EC0690127012811D9032C18D15C
:100C000005F0B2FB002814D005F0B4FB002810D08A
:100C1000032005F0B5FB00280BD00220307009E05E
:100C2000032C06D1032005F0ABFB002801D0377060
:100C300000E0022468460470204600F026F832489E
:100C400000260670204604F005FE022C01D0032C7D
:100C50001AD12E484188FF22013291434180698890
:100C60002B4A118041883943418000960098401CEE
:100C700000901428FADB688980088000401C688195
:100C800068894006FCD56E80F8BD10B5022801D0F9
:100C9000032828D119490B69042213430B6105214C
:100CA00009074B8A2024A3434B820B8A0224234347
:100CB0000B8210230228488A16D0904348827F2254
:100CC000088892018024204308800020401CC0B284
:100CD0000A28FBD3488A184348820E48521E4261B4
:100CE0000888A043088010BD10434882488A984372
:100CF000488210BD540208000033005000ED00E0AF
:100D0000E0010020C4060800431208002000005043
:100D1000441208000080004070477047E6490020F8
:100D20004860704770B50520000701893022914363
:100D3000018101898022114301810189890889008B
:100D4000491C01810189082319430181DB490C8871
:100D500014430C80448A9C434482058940242543E3
:100D60000581058A0426B5430582858AAD07FCD531
:100D7000D14E002575600E8801252E430E804D89C9
:100D8000AE05CF4D0E8801D52E4300E0AE430E8058
:100D90000D887826B54328350D800D880626354305
:100DA0000D80458A1D4345820B8893430B80028941
:100DB000A24302814889800503D5C04905206031DE
:100DC0008880012080070168821591430160BD4839
:100DD00001683F2252029143421489180160016860
:100DE00002031143016070BD70470321B648090238
:100DF00041810421418070470321B34809024181A8
:100E000004218180704710B5B04805F0BFFA10BDCD
:100E100070B5AA4C6088C006050F05F0BDFA618860
:100E20001E2291436A001143618070BD70B5A849CC
:100E30000120C863C86B0028FCD101208007C1696C
:100E4000A44800220368994200D202609A4C01260D
:100E50006378A14D002B04D06270016005F0A2FA06
:100E600011E0026819238A1ADB019A4214D3016047
:100E700005F098FA2988884201D9411A00E0091A38
:100E800089B2182908D32880012005F091FA05F0CD
:100E900095FA002800D1667070BD08B5002000905A
:100EA00008BD08B50020009008BD08B505F08CFA13
:100EB000009008BD08B505F08DFA009008BD08B592
:100EC000864901204A695206D20F13D04A69920618
:100ED000D20F0FD000220A610092FF225F32009BE6
:100EE0005B1C00939342FAD34969C907C90F02D02A
:100EF00005F076FA002008BD40183721C00009012E
:100F000040187047764B0020197800290DD07049A1
:100F10000122CA63CA6B002AFCD101218907C96971
:100F2000704A1268914201D2012070470021197065
:100F300070470020704708B560494A8801231A436A
:100F40004A8000210091491C00911429FBDB0521F6
:100F500009074A8992089200521C4A814A8952061E
:100F6000FCD54B89042213434B8148804889904328
:100F70004881888A0006FCD548898008800048811D
:100F800048890006FCD508BD10B557490020086007
:100F9000FFF739FF01208007016B49004908016311
:100FA00010BD10B54E490120087050490820088036
:100FB00005F01CFA01F092FAFF2401340D202146BD
:100FC000800105F019FA02F008F9FFF7DEFB0120B5
:100FD00005F018FA01F04AF8FFF7A4FE042000F02B
:100FE00064F8072000F061F80A2000F05EF806209F
:100FF00000F05BF80B2000F058F8012000F055F8E5
:10100000022000F052F8002000F04FF83848006845
:1010100005F0FEF9FFF797FCFFF7C9FC00F0F4FEBE
:1010200000F0E3F800F099FFA0050168214301609A
:101030000024FFF78BFA02F0BEFBFFF7A5FF0520A7
:101040000007C4821D494888E0229043A0304880B0
:10105000012005F0E3F9FFF794FB10BD10B505F092
:10106000E3F910BD704730B51C4A93898024A3432F
:1010700093810723138100239380958925439581CC
:10108000050A9580C0B2108091819089A04390811B
:101090000120184A010311601749086317480376B5
:1010A0000361C3604360036030BDC106C90E012007
:1010B0008840114908607047FC110800200000506A
:1010C000001000000002004020300050E204000048
:1010D000C00000407C0408007804080000100050A4
:1010E000F8110800D46F00208C0308000033005072
:1010F0000490002000E100E080E200E034040800F9
:1011000070B516460D46104605F0CEF800286AD098
:10111000340A304605F0C8F8012812D0A87A1E28F3
:1011200011D029460A310E2846D019DC801E030052
:1011300005F0C0F80B255929592D59315939593E17
:101140005900022070BD3146314805F073F9002185
:10115000204605F075F90221304605F0C9F842E055
:1011600018283DD006DC102819D012282CD01628BB
:1011700039D131E0522823D0D22834D128E020467A
:1011800005F064F92FE0204605F066F92BE02046D3
:1011900005F068F927E0204605F06AF923E02046CB
:1011A00005F06CF91FE01B4A2046126890471AE0D0
:1011B000204605F069F916E0204605F06BF912E0CB
:1011C000204605F06DF90EE0204605F06FF90AE0C3
:1011D000204605F071F906E0204605F073F902E0BB
:1011E000204605F075F9002070BD70B50A480378F7
:1011F000021D0021094D07E0CC00165D0A2E01D129
:101200002418A560491CC9B29942F5D370BD0000ED
:1012100001280000DC6C002004060800F86D0020A6
:10122000F7B507461646019805F058F90546C488F3
:10123000384605F059F9401E844200D2204684B257
:1012400022460B21384605F055F90746002E05D0F9
:1012500033460A21019A05F053F9FEBD29467C80E8
:1012600022460831381D05F055F8384605F04EF98C
:10127000FEBDF8B50646002000900C464A8801469F
:101280006B46304605F048F9020001D061881EE047
:10129000608805F047F9002817D005890120EAB2D7
:1012A000002105F045F90C4B0CCB104019400843C8
:1012B0000BD032020223294608480A3205F030F8E2
:1012C0006188018005F032F804E061880022304630
:1012D000FFF7A6FF0020F8BD181208000228000042
:1012E000F8B50D46064681002B48EA884458521C42
:1012F00020686B89018F294F51430091014640318D
:101300004A89C989511A8AB2991A89B2B94214D242
:101310009A4212D0294605F011F92D8920490098EA
:1013200005F012F92818801C4034E0823002401C7D
:1013300080B2042104F0DCFFF8BD2821304605F01E
:1013400009F9F8BDF8B50546870013480C46C059A1
:10135000C9880068114E024640325389D2899A1AD0
:1013600092B28B1A9BB2B34211D20B4E8A420ED06C
:1013700005F0F6F8F05905225F30611C04F0CAFF51
:101380002802401C80B2052104F0B2FFF8BD2821DC
:10139000284605F0DFF8F8BD4C030800FF7F000089
:1013A0001027000070B50446007800250D2801D0F4
:1013B0000A2200E002225A494B7A002B06D00D285F
:1013C00004D0637C032B01D0432551E0097A8A4382
:1013D00039D10D2809D00E2802D00F2803D134E0CE
:1013E000607C032804D3402542E0607C0328FAD8BF
:1013F000A07C0428F7D20A2908D0607C012822D0DA
:10140000022820D06078032809D811E005F0AEF852
:10141000012806D16078032803D0002801D049258F
:1014200026E005F0A3F8002802D160780228F6D85B
:101430003020035D22462046E17C3132143000F03A
:1014400019F8054614E0422512E005F08FF801284E
:1014500007D16078052804D1A01D05F08DF800287B
:10146000DDD005F083F8002802D160780228D6D8B4
:10147000284670BDFFB5002086B001216A46117074
:10148000044605910021002C06D0089D099A1F23CF
:101490009A4234D9402032E01C23069D079AF7E790
:1014A0006B185E78330004F005FF1D261010101035
:1014B000101010101026262626262626262626263A
:1014C00026261010101010102600059B03E06F4612
:1014D000FF5CB74204D05B1E5BB2002BF7DA03E07F
:1014E000002B01DB4A2006E0059B6F46FE54059B5E
:1014F0005B1CDBB205936B5C491C5918C9B2914265
:1015000001D20028CCD0914202D04A200AB0F0BDCE
:10151000641CE4B2022CF9D20028B3D0F6E7000034
:101520009805080070B5EFF31085012080F310884E
:101530002C4805F027F80446002D1DD0012080F32B
:101540001088002C2DD020464038C08F2649884274
:1015500027D16189208905F01BF805000ED02146AE
:101560001031A38962892089A847002806D0012864
:1015700017D0022815D105E00020E0E7204605F04D
:101580000DF80EE0EFF31085012080F31088154868
:1015900021460C3004F0A0FE002D0CD0012080F379
:1015A0001088EFF31084012080F310880D48006844
:1015B000002802D004E00020F1E7012004F0F4FF4D
:1015C000002C03D0012080F3108870BD0020FAE7C2
:1015D00010B5BC21054804F097FE0549012004F030
:1015E000E9FF10BDA80508003883000004060800C4
:1015F0002515002000B502790021130004F05AFEE1
:101600000C340707353520353535353527344279E3
:10161000042A27D8C279530707D05207520F012A4C
:1016200003D0042A01D0052A1CD18279002A01D0D6
:10163000012A17D1007AC01F0A2816D3062114E008
:101640004279521E0A2A10D3082242710DE04079D5
:1016500042070AD04007400F012806D0042804D0D2
:10166000052802D00A2100E00721084600BDF3B595
:1016700081B001980C460102CA1D022332480E3186
:1016800004F04EFE04700199054602272F488E0093
:10169000002C06D0042C16D0062C10D0072C3FD1DD
:1016A00008E0815905224968897C11406970805998
:1016B000C77335E0084604F083FF687030E0805956
:1016C0000F21C1732CE0044680594068417C0129F8
:1016D00002D1007E01280FD0019804F077FF01218C
:1016E0000028A0590BD04268D07D00281CD00128CA
:1016F0001AD004280DD00FE0002068700DE040687B
:10170000C27D022A01D0042A06D1007C02280BD116
:1017100002E0107C022807D06F70A1590320C87323
:10172000284604F003FEFEBD6970F6E701460A781C
:101730000120042A01D90020704749780029FBD0F4
:101740000129F8D170470000021C0000280508009C
:10175000FFB589B00D4600206946059008720B98C8
:10176000000A009004F032FF07460B9804F09CFD3D
:1017700000287DD00B982978000A8400784E012932
:1017800063D0042904D0062948D0072968D125E070
:101790003059C17B032901D0042961D1697800291E
:1017A0001AD040681022A91C04F0B4FD002F06D006
:1017B0003159C87B032807D0042808D050E030599D
:1017C000C07B032803D04BE00B20C87348E0052101
:1017D000009804F001FF43E00120B6E03059C07BDF
:1017E0000E283DD1009804F0EBFE002103E02A18FA
:1017F000401C9170C0B21028F9D3688A69460883EA
:10180000294606A808221431023004F083FD06ABF5
:10181000AA1C3946009804F0E5FE21E03059C07B4F
:101820000F281DD1AA1C0A21009804F0E1FE002F08
:1018300004D03946009804F0E1FE11E000231A4676
:101840003946009804F0E0FE0AE0012F08D10B9819
:1018500004F02AFD01281CD0002801D002200590A8
:101860006846007A002811D002AA0521009800E0FD
:101870000CE004F0BDFE6846027A60200243684630
:10188000027201233946009804F0BEFE05980DB09F
:10189000F0BD3059C07B0228E2D16878002851D0D1
:1018A00002210B9804F024FD305907224068A91C3E
:1018B000173004F02FFDE878002804D13059406833
:1018C000407C01283AD0009804F0A4FE002837D0CC
:1018D000297A009804F0A4FE002833D0009804F080
:1018E000A5FE0121009804F0A7FE00282CD0305955
:1018F0004068417E00292BD0042929D0C17E027D79
:101900001140C17630594068017F427D1140017716
:101910006846007A0028A7D1305902214268009811
:10192000173204F065FE305941684031897B002947
:1019300013D004210098FFF79AFE91E7022004E0FB
:10194000062002E0082000E00320694608728BE7C9
:101950000021C17630594068D9E70B21C1737FE778
:1019600028050800F8B50546FD49123080B2496ED9
:101970002A2250430C1804202071241D04F062FE1A
:1019800000902046093004226946064604F0C2FC55
:1019900004F058FE009004226946601C04F0BAFC72
:1019A00004F050FE009004226946601D04F0B2FC71
:1019B000EC4A2946964600204E22EB4BB446514352
:1019C000420066469619727836781202324376469D
:1019D0003668871C76187F00FF18F253401C0228D7
:1019E000EEDBE249A80008580822611C783004F0B8
:1019F00091FC2802401C80B20D2104F079FC0D21DD
:101A0000284604F025FEF8BDF3B5044681B0042055
:101A100004F024FE0246D549A0000858002A25D02B
:101A20000299082270300B3104F074FC02992046B0
:101A300013318C460022CB4B4E21CB4E48435500F0
:101A400061466F1879783F78090239431F683F185B
:101A5000AD197953521C022AF1DB20460299FFF797
:101A600081FF2046029904F0FFFDFEBD6030C17B7E
:101A7000490704D50621204604F0FCFDFEBD2102E5
:101A8000491C807B8DB2002807D07D225201294657
:101A9000B74804F0F5FD032100E00121284604F0D9
:101AA00027FC0621204604F0F1FDFEBDFFB581B004
:101AB0000398070A04F0F8FB0646102836D004DC29
:101AC000002E37D0082E04D130E0142E32D0152E3F
:101AD0000BD0A64CBD0060596030C07BC00607D556
:101AE0003D21384604F036FD24E0022005B0F0BD6B
:101AF00004F0D2FD01281DD1032E07D19C48039983
:101B000004F098FC605901216030817360591822FB
:101B10006030C17B1143C17360598030007C002864
:101B200004D00721039804F0E3FBDEE7384602996E
:101B3000FFF76AFF0020D9E710B50C4604F0B2FDAC
:101B400021888A00894989580968002902D0894B6F
:101B5000C968995010BDF8B50E461046150A04F034
:101B6000A3FBAC00814F002817D0142815D01528EE
:101B700009D038596030C07BC00606D53D212846C3
:101B800004F0E8FC09E0022008E004F085FD0128EB
:101B900003D131462846FFF7A3FB002039590968D5
:101BA000002902D0734AC9681151F8BDFFB50F462C
:101BB0001546110A6D4A8800125881B012681E46F7
:101BC000002A01D0D46803E06A4A00231458135055
:101BD000002C18D0201F4288674B9A4213D10088EE
:101BE000602810D12046403002898A420BD180887B
:101BF000002808D0A068002802D0204604F058FD34
:101C0000204604F05BFD33462A463946019804F02D
:101C10005BFD6BE7F8B5160A544CB50060591746E2
:101C200000281CD04030017E104604F061FB38468D
:101C300004F03AFB012802D006280FD108E06159D0
:101C40006031C87B020709D5F7221040C87305E050
:101C500060598030417C304604F07CFC0020F8BDA7
:101C6000F0B50646050285B0681C009080B20146BA
:101C700002903F4804F0DEFB0121029804F038FB9B
:101C800004F00AFD394CB7000128E05903D0603058
:101C9000C17BE72214E06030807B002809D07D22E0
:101CA00052013348029904F0EBFC0321029804F03E
:101CB0001FFB304604F00EFDE0596030C17BEF227F
:101CC0001140C173E0596030C17B4A0711D5FB2236
:101CD0001140C1730098ED1D82B225480024A9B2BD
:101CE00004230D3804F01CFB4680047004F01EFB36
:101CF000FCE600220121304604F0F2FCF6E610B5C5
:101D00001046140A04F0D0FA0B280CD01749A00092
:101D100008586030C07BC00603D53D21204604F042
:101D200019FC002010BD2046FFF79AFFF9E770B5B7
:101D300010460D46140A04F0B7FA002828D01428DB
:101D400026D015281AD00949A00008586030C07B59
:101D5000C00615D53D21204604F0FCFB18E000002C
:101D6000D8020800E0010020300008004C03080001
:101D7000240400002012080038830000022070BDF7
:101D800004F08AFC012803D129462046FFF7DAFA3D
:101D9000002070BDF8B507461D460E461446104695
:101DA00004F082FA142806D02B46224631463846E3
:101DB00004F09CFCF8BD0020F8BDF8B507461D46B0
:101DC0000E461446104604F06FFA142806D02B462F
:101DD00022463146384604F08FFCF8BD0020F8BD9D
:101DE000FEB5124D019117461E460024009029466B
:101DF00004F054FA050005D033463A46019900989C
:101E0000A84704462046FEBD70B509480378021D68
:101E10000021084D07E0CC00165D012E01D12418E9
:101E2000A560491CC9B29942F5D370BD8C4103002D
:101E300004060800186F0020FEB5514D01911746A9
:101E40001E4600240090294604F028FA050005D01B
:101E500033463A4601990098A84704462046FEBDFD
:101E600070B5064614460D46104604F01DFA240AC5
:101E7000002836D04348301806D001281FD00C283F
:101E800021D00E2827D11AE02878002829D03E4DED
:101E9000A600A859428E002A23D0412301212046C2
:101EA00004F030FCA95900204886A8590068002891
:101EB00017D1200201210E3004F01AFA11E028781F
:101EC000002808D10DE0204604F022FC0A2808D1A1
:101ED0002878002801D0412100E00021204604F0AC
:101EE0001DFC002070BDF8B515460C46104604F0E8
:101EF000DBF92F0A00282CD0234DBE00A859408EB4
:101F00000D280BD02148A2780088217983B2384669
:101F100004F00AFCA859408E00280CD02078002834
:101F200019D04123A8590121428E384604F0EAFB1A
:101F3000A95900204886384604F0EAFB012803D05E
:101F40004621384604F0EAFB22796188384604F0DD
:101F5000F1FB0020F8BD0023E4E7F0B50D480E23A7
:101F6000021D0B4C0578002107E0CE00975D9F42D3
:101F700001D13618B460491CC9B2A942F5D3F0BDED
:101F800028490300F4FBFFFF54050800600100200E
:101F9000486F002004060800F3B50546204980007C
:101FA0000C582802401C87B281B00026384604F045
:101FB0007BF9152807D19520005D002803D004F097
:101FC0006BFB002818D023464033988AD98A884270
:101FD00000D808464004020C99823946114804F0A2
:101FE0004FFB012194200155384604F081F98034DB
:101FF000607D002805D101E01F26F8E7A07D0028BC
:102000000CD000206075A075022004F027FB00288A
:1020100004D029463046029A04F092FBFEBD00002F
:102020004C030800230400000F4A518807235B0279
:102030009943400201435180704705200007018801
:10204000302211430180018803221143018070472F
:10205000052000070188302291430180018889080A
:1020600089000180704700008000005030B594491D
:102070009448CA05148880231C431480924C6589B7
:102080002D0701D4491EFAD2904C01212160904CB9
:10209000018821808F4940880880108898431080EB
:1020A00030BD002070477047704770470020704770
:1020B00001218907086B07221043086370477047A6
:1020C00030B586498448086085494C200880844C96
:1020D000844B203C23828549834848808548844935
:1020E0000180834919314180222141818121890068
:1020F000018281494182814901837F4911314183B4
:102100007C4A7F492032918041227E4912018A8097
:102110007D4ACA807C4D1035CD810A824A82921C4C
:102120008A826A1FCA82FF2246320A83774A4A831A
:10213000774A592111807649764D20310D8043250B
:102140004D80754D5582D5228A80FF22D3320A8177
:10215000724A4A81724A8A81734A7249118060497F
:10216000724A60394A80CA8810252A43CA80694A5F
:102170000A3A0A815A4D6E4A403D6A8063820822BB
:102180004A815449624A0988403A11825049694A51
:102190000988118068490978002901D0302101831C
:1021A00030BD4008704700B58BB0644A4262644A53
:1021B0008262644A4261644AC262644A0260644A5A
:1021C0000262644A4260644AC261444A4248002151
:1021D000106042484038026B03129A430263426B1C
:1021E0001F231B049A4303231B04D21842635B483A
:1021F0000268C3129A430260026803139A430260A2
:1022000068464154491CC9B22829FAD301462822FC
:10221000534804F07FF8FFF753FF04F0C3F8514927
:102220000880002004F0C4F804F0C8F80BB000BD2A
:1022300010B52A492848086028484038416B1F22B9
:1022400012049143032212048918416300060168B5
:10225000C908C900016005200007018989088900B3
:10226000491C0181018908221143018116484189D5
:10227000890504D501887822914308310180FFF750
:102280001FFF3948006F0078002804D037480088C5
:1022900013496039C880012004F0C0F810BD2648F9
:1022A00000787047244901200870124930200883C3
:1022B00070472149002008700E4910480883704774
:1022C000A0860100087F040020000050008000402C
:1022D000560208004A0308004C05540780000040DD
:1022E000602C00507F7F0000AC29000000220050CD
:1022F00009090000002400502204000030D0000032
:10230000EE110000002500502E02000044200000C5
:10231000402800500D95000002420000E4DC00005F
:102320001092000053780000002A00508B1000002B
:102330009DD500000026005038120800A320002080
:10234000A7200020AD200020B1200020A9200020DF
:10235000BF200020AB200020A3210020000200406D
:102360002000080078040800E00100205204080062
:1023700008430121890303460B4354490B80544B06
:1023800018430880092002434A8070474F490A8851
:102390000F239B0100079A43800D02430A80704778
:1023A0004A4900200880704748484A490288022369
:1023B0001A430280491E02D302889207FAD40021F0
:1023C0000181408970470AE000BF00BF00BF00BF25
:1023D00000BF00BF00BF00BF00BF00BF00BF401E66
:1023E000F2D2704770B50222510204464E003046C8
:1023F000FFF7BEFF1420FFF7E6FF002C01D00920F5
:1024000000E00720FFF7C2FFFFF7CEFF05460120DF
:10241000FFF7D9FF022200213046FFF7A9FF002C69
:1024200001D0092000E00720FFF7B0FFFFF7BCFF55
:102430004019264A0021118070BD70B50222510258
:1024400006464D002846FFF793FF1420FFF7BBFF19
:102450003046FFF79BFFFFF7A7FF04460120FFF779
:10246000B2FF022200212846FFF782FF3046FFF725
:102470008DFFFFF799FF0019144A0021118070BDEC
:10248000F0B5124C144820801420FFF79CFF012562
:102490006D02A580E5802088E9000843208020881F
:1024A0008E10B0432080FFF77FFF0746208830431F
:1024B0002080FFF779FF0246780071424018281A01
:1024C00052005118691AA080E180F0BD001500503B
:1024D00001400000A086010001480000704710B5CF
:1024E000032800D10420B14C40010019490008180C
:1024F0001A43C28010BD032800D10420AB4A40011A
:10250000801801228A4082807047032800D104206D
:10251000A64A4001801801228A404280704770B567
:1025200006460498144600280D46304602D0FFF7B0
:10253000ECFF01E0FFF7DFFF224629463046FFF7B8
:10254000CEFF70BD10B5002807D0431E974C5B002E
:1025500070341B19012802D002E00023F6E708318D
:10256000188801248C40A0438A4002431A8010BD81
:10257000032800D104208D4A4001801800880122E0
:102580008A40104000D001207047FFB583B088A07A
:102590000068009010461338FF26013686400190EF
:1025A00014460D9FB0B200F0F1F8002F01D00121C8
:1025B00000E000217F4D8140A889B0430143A981FB
:1025C0003F2000F0E3F88740A88980098001074395
:1025D000AF81B0B200F0DAF80C998140288AB0439C
:1025E000014329820126019930468840074680B27E
:1025F00000F0CCF806998140288AB843014329822B
:102600003F2000F0C3F803996A46525C04995118C0
:1026100081406848620040381018428B920992014C
:1026200011434183A007C20EFF21914080209040BA
:10263000002C0BDA2207120F083A93085E4A9B001F
:102640009A18D3698B430343D36107E0A3085B4A1D
:102650009B009A1813688B4303431360E006C00E77
:1026600086405748066007B0F0BD52490A8A0121EA
:10267000133881400A40C80701D0002038E088079D
:1026800001D5012034E0480701D5022030E00807D9
:1026900001D503202CE0C80601D5042028E08806D7
:1026A00001D5052024E0480601D5062020E00806D3
:1026B00001D507201CE0C80501D5082018E08805D1
:1026C00001D5092014E0480501D50A2010E00805CD
:1026D00001D50B200CE0C80401D50C2008E08804CB
:1026E00001D50D2004E0480401D50E2000E00F20A4
:1026F000C240D0B2704770B50124133884400D46F3
:10270000A0B200F043F885402A48018AA1430D4356
:10271000058270BD70B501242146133881400D46F5
:1027200088B200F033F884402248C189A9430C43A1
:10273000C48170BD0246133A042A04D8214A80009D
:10274000801880384163704710B504461338042858
:102750000AD82046FFF7DEFF1A49A000401880384B
:10276000406B002801D0804710BDE106C90E012052
:1027700088401549086010BD1320E5E71420E3E701
:102780001520E1E71620DFE71720DDE700280AD053
:10279000411E4840C003010C002001E04908401CD4
:1027A0000029FBD100E0102080B2704700300050BB
:1027B00001090F190014005000ED00E000E400E0F2
:1027C00000E100E02090002080E200E030B5224BE4
:1027D0001C680825C907AC43090F0C431C60196825
:1027E0000424D207A143520F114319601968022231
:1027F000C0079143800F0143196018480168C02247
:10280000090A09021143016030BD154B58809980B7
:10281000DA807047FF201349013008607047FF20BD
:10282000104901308031086070470F480068002867
:1028300000D00047704770B5054614460E4601208B
:1028400004F01CFA284604F025FA304604F02EFA6B
:102850000348C48170BD00000034005008E400E06B
:102860000034005000E100E0D86F002010B54F4860
:1028700041780078FFF73FFE10BD10B54B48417816
:102880000078FFF742FE10BDF8B50E4615464749E1
:102890000278079F0A7040781C464870FFF7EDFFEA
:1028A0000520000781880122D2021143818040481F
:1028B00001884908490001800188FF228132914343
:1028C000F20111430180018840229143AA01114382
:1028D0000180018804229143A200114301800188F4
:1028E00002229143069A520011430180018801227D
:1028F00092039143BA031143018001881822914346
:10290000089AD200114301800188012211430180FD
:10291000F8BD27490A88520852000A800A88FF2316
:1029200081339A43C00102430A8008880122104380
:102930000880704710B51E48018849084900018089
:102940000520000781880122D20291438180174827
:1029500041780078FFF7D9FD10BD15480188490876
:1029600049000180704710B5114900230A88D2053B
:10297000920F012A01D9040C8C80488008888004B9
:10298000FCD50120C880012A01D988880304488821
:10299000C01810BD10B50446FFF768FF2046FFF7CA
:1029A000E2FF0446FFF769FF204610BDDC6F002000
:1029B00000120050F74AD1609060704710B50120B6
:1029C000FFF7A7FF05200002FFF7E4FFC0B210BD2C
:1029D00070B50024F04DFFF7F1FFC00704D0641C70
:1029E000AC42F8D30020C04370BD70B5FFF7F0FFD4
:1029F000002817D1FFF78DFFFFF738FF9F20FFF763
:102A0000B2FF0020FFF7AFFF05040020FFF7ABFF88
:102A100004022C430020FFF7A6FF20430546FFF7E2
:102A20002CFF284670BD70B5FFF7DFFFD94CDB4A9D
:102A3000002114234B43D5589B185B681D4003406D
:102A40009D420ED1142308B24B4320809B189D68F1
:102A5000A560DB68E360142358438018606048B2C7
:102A600070BD491C89B20429E3D300206060401E78
:102A700070BD70B5FFF7ACFF002815D1FFF749FF17
:102A8000C54E00250620FFF785FF0024FFF796FFBF
:102A9000C10703D1800701D5002070BD641CB4427A
:102AA000F4D36D1C322DEDD30020C04370BD70B542
:102AB000FFF78EFF002815D1FFF72BFFB64E00253C
:102AC0005020FFF767FF0024FFF778FFC10703D10D
:102AD000800701D5002070BD641CB442F4D36D1C86
:102AE000322DEDD30020C04370BD70B5FFF770FFED
:102AF000002811D1FFF70DFFA74E00250420FFF796
:102B000049FF0024FFF75AFF800707D0641CB44236
:102B1000F8D36D1C322DF1D30020C04370BD10B529
:102B20000446FFF755FF002808D10120FFF7F1FE0A
:102B3000E01DF930FFF72EFFFFF74AFF10BD70B51B
:102B4000064694480D4680685119814201D9441BBC
:102B500000E01446FFF73CFF00281AD10220FFF7DF
:102B6000D8FEFFF783FE0321284609060843FFF736
:102B7000FAFE0020FFF7CDFE002505E00020FFF75C
:102B8000F2FE30706D1C761CA542F7D3FFF775FE80
:102B9000204670BD70B505467E480E46C068144696
:102BA000824200D984B2FFF713FF00281ED1FFF73D
:102BB00060FF00281AD10220FFF7ABFEFFF756FE98
:102BC0000121304649060843FFF7CDFE0020FFF7FC
:102BD000A0FE05E028786D1CFFF7C5FE641EA4B2B8
:102BE000002CF7D1FFF749FEFFF7F2FE70BD70B57C
:102BF0000D460446FFF73DFF002802D00020C043E9
:102C000070BD0220FFF785FE28062043FFF7C2FEB5
:102C1000FFF7DEFE70BD10B5FFF72BFF002802D0D6
:102C20000020C04310BD0020FFF773FEC720FFF750
:102C3000B1FEFFF7CDFE40B210BD10B50024FFF786
:102C4000C7FE002811D10120FFF763FEFFF70EFE3B
:102C500009200003FFF787FE0020FFF784FE002015
:102C6000FFF781FE84B2FFF708FE20B210BD70B5F9
:102C700000252C46FFF7ACFE002818D1FFF749FECF
:102C8000FFF7F4FD4B20FFF76EFE0220FFF741FE39
:102C90000020FFF768FE0020FFF765FE00260446CF
:102CA0003046FFF760FE30430546FFF7E6FD284655
:102CB000214670BDF7B582B0364F0E460091F968D7
:102CC00014460D46304603F03FFC401C6843451E49
:102CD0000020FFF71EFEB868801BA04200D2044609
:102CE0002646002719E000988019A84202D90098CA
:102CF0002E1A761C0298B2B2C0190099FFF74AFF4B
:102D0000002803D00020C04305B0F0BD681C00902F
:102D10002048BF19C0682D18E61BA742E3D33846E8
:102D2000F2E710B5FFF754FE002805D1FFF7F1FDDB
:102D3000B920FFF72FFE002010BD10B50020FFF7CF
:102D4000E8FDAB20FFF726FE002010BD70B5114C4A
:102D500005466068002806D0FFF78BFE002805D0E6
:102D60000020C04370BD0520C04370BDFFF726FEA4
:102D70006168097C884329400843FFF7D0FE70BD95
:102D800010B504484068407CFFF7E0FF002807D0FA
:102D900040B210BDE06F002080841E00586F0020FC
:102DA000FFF739FFF5E770B5054639480E46C068AC
:102DB0001446824200D984B2FFF70AFE00281DD1D2
:102DC000FFF757FE002819D10220FFF7A2FDFFF7F9
:102DD0004DFD0121304649060843FFF7C4FD0020A0
:102DE000FFF797FD04E02846FFF7BDFD641EA4B27F
:102DF000002CF8D1FFF741FDFFF7EAFD70BDF7B5F4
:102E000082B0234F0E460091F96814460D463046B5
:102E100003F09AFB401C6843451E0020FFF779FD34
:102E2000B868801BA04200D204462646002717E05F
:102E300000988019A84202D900982E1A761CB2B2C6
:102E400000990298FFF7AFFF002802D00020C0438E
:102E50005AE7681C00900E48BF19C0682D18E61B81
:102E6000A742E5D338464FE71FB56A465173107342
:102E7000002000900190034602460146029003A8FC
:102E8000FFF702FDFFF759FFFFF7CDFD04B080E724
:102E9000E06F0020F0B5B44D2B7005231B079C8814
:102EA000202634439C80B14C0023A381AF4B612684
:102EB000603B1E801E880627BE4349000E431E80CD
:102EC00019881026B1431201114319808105890D1B
:102ED00099800121A181218A8906FCD46870002093
:102EE000F0BDA249002088810520000781882022AA
:102EF000914381807047F0B59C4B9C4C9B4D0020CA
:102F00000822603B99492034203D1A820E8A7607B8
:102F1000FCD50E8AB606FCD42688AF8AF60706D002
:102F20007D263601401CB042EFD30120F0BD0020C9
:102F3000F0BD30B501048C4C0B0E8C492278603901
:102F4000012A02D0022A0ED110E0884A002595817C
:102F5000C5036478ED0F25438D8001249481148A84
:102F6000A406FCD40B82C0B2088230BD0202120E4D
:102F70000A82F7E770B50D460646FFF7BCFF00284A
:102F800001D0012070BDEFF31084012080F3108880
:102F90003046FFF7CEFFFF207449013060390882C8
:102FA000002C10D0012080F310887048028B002A7A
:102FB000FCD0098A2970018A4907FCD5018A890653
:102FC000FCD4002070BD0020EDE737B514460D4657
:102FD000FFF791FF002801D001203EBD224629467F
:102FE000684600F08BF800203EBD70B50D460646E1
:102FF000FFF781FF002801D0012070BDEFF310849E
:10300000012080F310883046FFF793FF574860385F
:103010000582002C0BD0012080F310885348018AD0
:103020004907FCD5018A8906FCD4002070BD002028
:10303000F2E7F8B5054600201860012040041E465E
:103040000F46814231D2FF21F8B201310C1AA2425F
:1030500000D21446FFF74FFF002801D00120F8BD31
:10306000EFF310800090012080F310883846FFF7BE
:1030700060FF3E493D486039028A9207FCD52A78B4
:103080000A823268641E521CA4B26D1C3260002C8D
:10309000F2D10099002900D0012181F31088018A22
:1030A0004907FCD5018A8906FCD40020F8BDF8B593
:1030B0000646002018600090012040041C460D4682
:1030C000814201D30220F8BD401B904200D202464B
:1030D00017460FE02068BAB2411980196B46FFF716
:1030E000A8FF002801D00120F8BD21680098091828
:1030F0003F1A2160002FEDD10020F8BDF8B516462B
:103100000446EFF31085012080F310880846FFF78E
:1031100010FF164900226039FF271448013704E0E8
:10312000038A9B07FCD50F82521CB242F8D3002DB4
:1031300004D0012282F3108800220BE00022F9E77C
:10314000038B002BFCD00B8A25682B7023685B1C3B
:10315000521C2360B242F3D3018A4907FCD5018A8D
:103160008906FCD4F8BD0000F06F00206013005009
:1031700070B516460C460546012802D00C2D26D106
:103180000DE006222149224803F0E0FA00281ED073
:1031900006221F49304603F0BDF8062012E01D4DFF
:1031A00029680878C00610D52078202803D200208E
:1031B0002070042070BD0A7E30463A3103F0AAF830
:1031C0002868007E2070002070BD012070BD32464E
:1031D0002146284603F0C0FA70BD70B50E480F496D
:1031E000C405228880252A4322800D4A53891B0763
:1031F00001D4401EFAD20B4A012010600622044876
:1032000003F088F82088A843208070BD383E030072
:1032100039120800C0060800A0860100D47F04000F
:10322000200000500080004010B50124A407A06BCE
:10323000FDF740FED44903F087F927221201511A05
:1032400000D10121D14A50601160206B08218843D0
:103250000843206310BDFFB500256A461570CC49B0
:10326000096800297CD00A464032937C002B77D035
:10327000C84CC94B012813D0098D26460907803E4A
:103280000127366FC90EFF04C919715A6E46890BA2
:1032900031713179002963D03179012906D011E0EB
:1032A0006E46E16C3170002199700BE011894E2659
:1032B0007143BA4E25688919695A6E460D0AD17C48
:1032C000691A3170317800294BD0B54DB449603D51
:1032D000AE6E097B2E254D43B446751905E0491C99
:1032E0004907490F2E254D4365446E463678761EB4
:1032F00037063F0E6E463770F1D1AD786E06760E0A
:103300006D462E712D79AE06B60E6D462E722E25A7
:103310006943A24DA469463D4919615A6D46C906E3
:10332000C90F2973012805D000209870287B002838
:103330000FD10BE0287B002802D1287A00280FD07B
:10334000107D00280CD101201AE009E0287A00281D
:1033500006D0107D002803D1D07D08210843D07508
:10336000FFBD0128FCD0002D02D09878002806D09F
:10337000107D002803D1D07D08210843D07500209E
:103380009870FFBD10B5052000074189890708D056
:10339000418989088900418182494A88520852003E
:1033A0004A800189802211430181018A04229143CC
:1033B0000182818A8907FCD503F0D4F901208007B6
:1033C000016901694907FCD510BDF8B5724EF08856
:1033D00000282DD10120F08073490820088005279E
:1033E0003F077889800720D0B88A400701D5FDF7CC
:1033F000CCF96C4D28888021084328806B4CFF2035
:10340000608004202080FEF718FE7D21C900E0883E
:10341000A288000480188842F9D905202080B0884D
:1034200078802988802081432980614910200860A4
:10343000F8BD70B5FEF70CFEFFF7A4FF564C002652
:103440005948E680018949084900018101F060FC82
:1034500001208007816904221143816103F088F90A
:103460005349102080310125086003F087F903F0EB
:103470008BF94C4826704089800510D5607800286B
:103480000DD14C4865700088C00708D10120FEF7B7
:10349000A9FF8B218900884201D90220607070BD8C
:1034A00010B503F077F900F068F83B490120087087
:1034B00010BD10B501208007008A000601D500F07C
:1034C0005CF810BD10B50120FFF7C5FE03F068F9E8
:1034D00010BD10B50124A407208A00071BD50220C7
:1034E000FFF7B9FE03F062F9206840004008610070
:1034F000084320602068C00FFCD124488030016858
:103500000906090E01D00121016023490420087039
:1035100029490120087010BD70B52848008886062A
:103520002748B60E44681B48006F0078002802D177
:10353000304603F041F923480089174DC00507D5EF
:1035400020060FD5E0070DD0304603F03BF903E02D
:10355000200607D5E00705D003201B4928700888FE
:10356000401C0880200407D5E00505D50220174936
:1035700028700888401C088070BD10B506490120DD
:10358000C87003F025F910BD710200004000004032
:103590006C030800E0010020401208004A00080007
:1035A000380308002000005000330050001600507F
:1035B00000E200E000150050F26F002000200050F3
:1035C00000020040002C0050FC6F0020087000201A
:1035D000FEB5654C0026606D37460090FDF72EF86D
:1035E000624D002802D12879022801D100200090E4
:1035F000FDF788FC00280ED103F0F0F800280AD06F
:103600005A480126C0780028F9D005252D07A88A38
:10361000C00701D00426A4E002F094FE00284FD198
:1036200052480179002901D1216D009150498969E1
:10363000002901D0616D00914C48009C817868465A
:1036400003F0D2F800283BD00120800740694006F3
:1036500036D446488178684602F06EFE00282FD0A6
:1036600003F0C8F800287CD00020FF2100942D3101
:1036700001240190A407206A8842FCD33B4881784A
:10368000684603F0B1F8002818D06069400615D4E8
:1036900036488178684602F04FFE00280ED0009828
:1036A000002804D00199002901D0401E0090314922
:1036B000002209788320022903D003E001F028FBCF
:1036C0004FE0B5202C490B78012B00D121300A7036
:1036D000E26B0F21920A92020A43E263E16B274AEE
:1036E000800211400143E163E06B3721C002C00A50
:1036F00089050843E06300980426002801D0001DD6
:103700000090C002642102F01FFF002800D0401E7C
:1037100016490979002900D0012103F071F81848F1
:10372000C06A8047FDF705FC002808D028883021B2
:103730000843288028880321084328800127206B1C
:103740000004C00FFBD00F480168C905FCD5002F4D
:1037500001D0FEF77DFC03F059F8288980218843C9
:1037600028813046FEBD000060020020C606080029
:10377000A80508005402080041120800FF03E0FFFA
:103780001C0708000002004008B572B603F044F8B8
:10379000052109074A8A684602800088820892004B
:1037A0006846028002880120C00302436846028006
:1037B0000088488208BD10B5FCF7C8FEFC4800210F
:1037C000417002228270C170252202713222C280B1
:1037D000018141818181C181818201824182F54AD9
:1037E0001368140323431360C182FCF7EFFF10BD7D
:1037F00038B5EF4C607800280BD16081A081E08162
:10380000A082E07869460870684603F00BF8022051
:10381000607038BD1CB5E64900224A818A81CA81A0
:103820008A824A820078C870FFF7E2FF0421684666
:1038300001700E214170032181700121C170DE49A8
:1038400081800022062102F0F3FF1CBD38B5D84C60
:103850006078002816D12081E178684601702179CE
:103860004170A178817002F0E9FFD44D05E068460F
:1038700002F0E4FF002800D0FEE7686B0028F6D0D5
:103880000120607038BD1CB50446042168460170F3
:103890000F214170032181700121C170C8498180CD
:1038A0000022062102F0C4FFC1482178C17061786E
:1038B0000171A17881702179E27809021143C180F8
:1038C000FFF7C4FF1CBD38B5B94C607800281BD188
:1038D000E1786846017025214170A178817002F07D
:1038E000ADFFB848016AC21311430162016A0214B4
:1038F00091430162016A821491430162016A490A9B
:10390000490201620520607038BD1CB504460421DF
:10391000684601700E214170032181700121C17040
:10392000A549002230318180062102F081FFA048A4
:103930002178C17061788170FFF7C5FF1CBDFEB5AD
:10394000A14D02780121A04C203589024F2A31D0A7
:103950009E4B8E10542A39D0522A2AD119604778AA
:103960009B480078002855D09A482188314321800F
:103970002188C05D090A090201432180012096497E
:10398000800388800120288008202880062088491C
:1039900048700421684601700E2141700321817036
:1039A0000121C1708449002210398180062102F072
:1039B0003FFFFEBD002020802880874B03229A8095
:1039C000824A803A1160854A1160E0E719604778C1
:1039D0007F480078002811D07E482188314321801B
:1039E0002188C05D090A09020143218001207A492A
:1039F00080038880042028800220C6E7384602F031
:103A0000DBFE2088304320802088000A00023843F3
:103A10002080EBE7384602F0CFFE2088304320803C
:103A20002088000A000238432080A7E710B5604CC8
:103A30006078012805D06078022802D060780528D7
:103A400007D15E48406B01F081F85C48343002F0E9
:103A5000FBFE0020607010BD1CB50421684601709B
:103A60000E214170032181700121C1705249002251
:103A700040318180062102F0DBFEFFF7D7FF51497C
:103A8000002008621CBD1FB50421684601700E218C
:103A900041700B2181700121C17047491031818033
:103AA00043494A89C2808A890281CA894281498AF6
:103AB000818100220E2102F0BBFEFFF7B7FF1FBD80
:103AC0007CB504460421684601700F214170032132
:103AD000817039490125C57050318180002206214D
:103AE00002F0A6FE227802213D48012A04D0022AD3
:103AF00018D0FCF72BFD7CBD6278002A02D1A27899
:103B0000002A0DD005716078364919224843A17802
:103B100092015143411834484165FCF724FD7CBDB6
:103B20000171FAE70171FCF72BFD7CBD0521090746
:103B300048807047F7B52D49CC0520888027384349
:103B400020802B484289120701D4491EFAD2C18B2A
:103B500002221143C183002550E026480021016064
:103B6000009AAE00B2181204920C02614161042165
:103B7000016001983018401C02F05EFA01990002C1
:103B8000895D08431B498A681205120F082AFAD07A
:103B900088618868C206FCD581072DD5C10401D48F
:103BA000800429D52088B84320800020C043FEBD72
:103BB000F46F002000020040204000009003080045
:103BC0001E200000C00000400020005080E100E006
:103BD000C46C002020000800002C005080E200E0AF
:103BE000C60608000077010060020020A0860100E0
:103BF00020000050008000406D1CADB2029885424C
:103C0000ABD32088B84320800020D0E7F0B505462C
:103C1000401C4178027808020026297805241043C8
:103C2000240785B0374601291FD0FD4BFC4AC03B15
:103C300002290AD003290DD0042912D0052916D053
:103C4000062919D0072917D044E00120106303206A
:103C500000020FE06188F34A121A8A423AD3081828
:103C600003E06188814235D3081A608032E017632F
:103C70000120400218612DE0687801F0F2FA411C41
:103C800005D0811C05D02978072904D018E0012629
:103C900016E0022614E080B2009001226946E24854
:103CA000FFF748FF002800D0032610200090DE48D0
:103CB000012269461438FFF73DFF002800D0032693
:103CC000FCF7FEFC7D20800100970099491C0091C3
:103CD0008142FADB0421684601720E2141720521FE
:103CE00081720121C1722878002810D0062812D0D4
:103CF000072810D06846C7818120C00169468881A5
:103D000002A80022082102F093FD05B0F0BD6088F2
:103D10006946C881F0E76846C681EDE77CB5044690
:103D20000078651C030002F0C5FA09060A11151C8B
:103D3000202733483800607801F08BFC2DE068784C
:103D400029780002084301F06EFC26E0607801F05B
:103D500057FC22E0687829780002084301F043FC10
:103D6000EDE7607801F06CFC17E0687829780002D4
:103D7000084301F089FC10E06878297800020843C4
:103D800001F024FCA078002802D16078002802D03D
:103D900001F08BFC01E001F06FFC0421684601702A
:103DA0000E214170032181700121C1709F498180E2
:103DB0000022062102F03CFD7CBD6078EBE7FEB5F9
:103DC0000646407800250124002805D030780128D7
:103DD00004D002282DD12AE001252AE003273F0242
:103DE00010233A46002101200094FEF798FB0121A0
:103DF00011233A4608460094FEF791FB012002F099
:103E000021FF032002F012FF002211460120FEF7DD
:103E1000DDFC71787D26F600304602F095FB024607
:103E200011463046FEF7F1FC02F018FF01E002F007
:103E30001DFF0421684601710E2141710521817128
:103E40007A49C4710D390181857201A800220821C7
:103E500002F0EEFCABE6764900200870704770B5C2
:103E60000546734C01202070284602F0F3FC014601
:103E7000704A284602F0DCFC20780028FDD170BD95
:103E800010B56B4C012222706A4A02F0D1FC2078F6
:103E90000028FDD110BDF0B5C9B006460578042153
:103EA00040A801700E214170142181700121C17060
:103EB0005E4904461039818085711021C01D02F0D1
:103EC000CFFC34A829464690FF2000276D460130DC
:103ED0000B0002F0EFF9150C0F2D46474B7175469C
:103EE0004697BBBEC1FD46FCFBFAF9F8460010221E
:103EF000510353E1FF210131284602F005FAFF2268
:103F0000013251026846FEF71AFE002031184A7845
:103F10002A542218401C4978C0B2D1711028F5D318
:103F200040A8202187750D0366E0FF220132F6E0EC
:103F30000422414947A8FEF702FE0120479AC00328
:103F4000824203D138491022803127E11320000337
:103F5000824202D11022394920E139A1E01D02F04C
:103F6000CDFC1EE110221121490317E1FF27013783
:103F70003946284602F0C8F93A4611277F033946E8
:103F80006846FEF7DCFD002031184978302900D062
:103F90002954401CC0B21028F6D320213846FEF721
:103FA00026FE002805D1FF22013239466846FEF779
:103FB00081FE10223946F1E0102221210903EDE0B3
:103FC000FF210131284602F09FF9FF222121013211
:103FD00009036846FEF7B3FD002031184A782A54D9
:103FE0002218401C4978C0B2D1711028F5D340A8DE
:103FF0002021212587752D032846FEF7F8FD00288E
:1040000093D0CEE001F082FCFF20E11D283001F0CA
:104010009AFCFF2042A9273001F095FCC1E0000086
:10402000C0300050FFFF00008C7F0000E040000027
:10403000F46F0020573E002004F001000C30010016
:104040004641494C213078257800000001F024FCDD
:10405000A7E001F031FCA4E006460146284602F044
:1040600053F91F21324609036846FEF768FD802197
:1040700068464171877130214172012181720020AF
:10408000295C2218401CC0B2D1710C28F8D31F251E
:104090002D0320212846FEF7AAFD002804D1324630
:1040A00029466846FEF706FE3146684602F02CF9BE
:1040B00007252D03324629466846FEF740FDFF22BC
:1040C0001021469805E080E07BE054E03FE02BE0E3
:1040D00008E002F0CBFB20212846FEF788FD0028EF
:1040E0001CD05EE006460146284602F00DF91F216D
:1040F000324609036846FEF722FD302168464171C9
:10410000012181718021417287720020295C22186F
:10411000401CC0B2D1710C28F8D3B8E7324629460A
:104120006846FEF7C7FD3CE07078782804D079280F
:1041300006D07A2835D106E01022072109032DE0A8
:104140001022FE492AE0FD491022103126E0707845
:10415000782804D0792806D07A2822D107E0F749B8
:10416000102220311AE0F5491022303116E0F349CF
:104170001022403112E07078782804D0792806D0D7
:104180007A280ED107E0ED491022503106E0EB49C4
:104190001022603102E01022E121C901E01DFEF78A
:1041A000CEFC0022072140A802F042FB02F034FBC3
:1041B00000221021E01D02F03BFB02F02DFB49B074
:1041C000F0BD102223210903E8E71022DC49E5E7CE
:1041D0003EB5044622780020002A01D0032A03D1EC
:1041E0006178072900D90120A178002901D003298D
:1041F00003D1E378072B00D90120012A03D163788A
:10420000052B00D90120012903D1E378052B00D922
:104210000120022A03D16278092A00D9012002294B
:1042200003D1E178092900D90120042269460A71E5
:104230000E224A7105228A710122CA71C14A0A817D
:10424000488101A80022082102F0F2FA00257D2011
:10425000000100950099491C00918142FADB00237E
:104260001A46042118460095FEF759F900231A460C
:10427000052118460095FEF752F9B34821780170E0
:1042800061784170A1788170E178C170FCF760FAC3
:104290003EBDAE490A8A5207FCD5AC4A603A10824C
:1042A000088A4007FCD5FF2001301082088B0028C7
:1042B000FCD0108AC0B27047A44A138A5B07FCD5B1
:1042C000A24B603B18821982108A4007FCD5108AE5
:1042D0008006FCD470479E490022488008888004EC
:1042E000FCD50120C880488880187047F8B50F4673
:1042F00004461D46164619461046FEF7FCF82046B1
:10430000FFF7E9FF3846FFF7E6FF29463046FEF79C
:10431000FCF8F8BD70B50E46044615461146304609
:10432000FEF7E9F880202043FFF7D5FF0020FFF7D4
:10433000D2FFC4B229463046FEF7E7F8204670BDEA
:10434000F0B585B004460421684601710E22427121
:10435000052282717B4A0126C6710C3A028101A8AE
:104360000390207805252D0700270028A88833D042
:1043700020210843A88075488781744961226039EB
:104380000A800A8806239A43121D0A800A8810238D
:104390009A430A80227B8A8086810646308A80067C
:1043A000FCD4E178A07809230022FEF798F861791F
:1043B00020790A230022FEF792F8607B002807D0BC
:1043C00000970122E17BA07B00235202FEF7A7F8B1
:1043D000607801287ED09EE00122D2021043A8809E
:1043E0005B4802885208520002800288FF23813312
:1043F0009A430280028840239A43028002880A433B
:1044000002800188022211430180018852039143F6
:1044100001800188182291431031018001883143C5
:1044200001800096E178A07807235201FEF777F823
:104430000096FF226179207905230132FEF76FF89B
:1044400000960623E179A079DA01FEF768F8009674
:104450000322617A207A00231202FEF760F8607B63
:10446000002807D000970122E17BA07B00235202A5
:10447000FEF755F86078012805D1637A227AE17A4F
:10448000A07AFFF733FF627A217AA07AFFF742FF22
:1044900069464881607B00280DD0FF20F5300097E9
:1044A0000099491C00918142FADBE17BA07BFEF779
:1044B0005FF86946488100220821039802F0B8F9A4
:1044C00001267602E178A07800233246FEF707F84D
:1044D000617900E01BE0207900233246FDF7FFFF01
:1044E000E179A07900233246FDF7F9FF617A207A5D
:1044F00000237210FDF7F3FF1548018849084900B1
:104500000180A988B0008143A98005B0F0BDE17A9F
:10451000A07AFFF7D1FEA07AFFF7BBFE694648817B
:10452000607B00281AD0FF20F53000970099491CC5
:1045300000918142FADBE17BA07B0BE01070000070
:1045400030300200FD400000CF6F002060130050AB
:1045500000120050FEF70CF869464881002208213D
:10456000039802F065F9B781A88820218843A880C4
:10457000CBE730B593B00420694608700E20487030
:10458000452088700120C870A148888007248C715C
:1045900002A8A0A1054601F046FD6946CC710AA813
:1045A0009CA1044601F03FFD00220821684602F06C
:1045B0003FF902F031F900221021284602F038F9C3
:1045C00002F02AF90022102106A802F031F902F0C7
:1045D00023F900221021204602F02AF902F01CF9EA
:1045E000002210210EA802F023F902F015F913B0F1
:1045F00030BDF8B50E460121884B89044118DC0511
:104600002088802528432080854847893F0701D49A
:104610005B1EFAD2834B01201860304601F07AFE0F
:104620002088A8432080F8BD70B586B00422694672
:104630000A700E224A700A228A700122CA70744AD5
:10464000794D603A8A8002788A710022CA7102929A
:104650000A7301786B4600290ED0734C4834022946
:104660000ED0714E143E04290ED0012913D0032917
:104670001AD0052923D029E002221946284606E04F
:1046800006221946204602E0042219463046C91D7A
:10469000FFF7AFFF1AE081784278080210430490D8
:1046A000012204A928460FE004920592411C06222B
:1046B00004A801F02FFE022204A9204604E01020E5
:1046C0000490012204A93046FFF734FA684600221C
:1046D0000D2102F0ADF806B070BD10B5534CA069C5
:1046E00001F0ECFF0020A06110BDF8B54178027820
:1046F00009021143009187780321BE003546083531
:10470000284601F0FBFD0446042020700E20607056
:10471000711DA1700120E0703D4821465038A080F5
:104720000020A071E771F2B208310098FFF761FF35
:104730003E4920468C613E4A294602F079F8F8BD90
:104740001CB5417802780B0213438478C11C2246C1
:104750001846FFF7EFF90421684601700E214170F9
:10476000052181700121C1702949403981800021D2
:1047700081710A46C471082102F05AF81CBDFEB5C9
:10478000044606780421684601700E214170092113
:1047900081700121C1701E493039818086710021EC
:1047A000C171601C029101F047FC050220792D0ABD
:1047B00000060543002E06D0012E0ED0022E16D084
:1047C000032E1FD119E0286869460872020A4A724E
:1047D000020C8A72000EC87214E0601D01F02CFCFD
:1047E0000002217A000A0906084328600AE02888A6
:1047F00069460872000A487204E0A07961790002F3
:104800000843288000220C21684602F011F8FEBD02
:10481000F0400000312E302E31350000A08601001E
:1048200020000050008000408C7F0000F46F0020CA
:10483000DB4600201649896A084710B5052001F0BB
:10484000B3FE14480068002805D011490122C96C44
:10485000C9B200F08BF810BD10B520210D4801F051
:1048600053FD0C4802F008F80A480C3002F004F836
:1048700002F008F80849062001F09CFE07490520CF
:1048800001F098FE0649042001F094FE10BD0000DE
:10489000E00100206C030800416002003B4800205A
:1048A000815F0200F7B586B09D48069D0090047BAD
:1048B0004035E87C16468019E8744A700C706889A7
:1048C000888097480F466038039036E00398816EE1
:1048D0002E206043081893490A78022A02D00978EA
:1048E00004291ED1904A1188491C11804388D90798
:1048F00003D08E4A1188491C1180190703D58C4AB0
:104900001188491C11808B4982790B88D218520872
:104910000A80894949880A0A88490B88D2185208AE
:104920000A80E97DC90705D08078400602D4069840
:1049300001F0AEFF641C6407640F3046761EF6B2C9
:104940000028C3D100980473287E00280CD0E87C8E
:10495000002809D003993878896E2E225043081810
:104960008078C00700D1287609B0F0BDF8B50F46B1
:104970000546734940300089C9691646884201D10D
:10498000002102E00002401C81B2022206239002B4
:1049900001F0C6FC044601463A462846FFF782FF6E
:1049A000002E02D00020A07003E02146284601F02E
:1049B00075FF204601F0BAFCF8BD30B561490A88A0
:1049C000FF2381339A4380320A800C8801221443EA
:1049D0000C800C881825AC4310340C8004884C8063
:1049E0000C88A404FCD5CA8044884C800C88A4049C
:1049F000FCD5CA8084884C800C88A404FCD5CA806D
:104A0000C4884C800C88A404FCD5CA8004894C80DE
:104A10000C88A404FCD5CA8044894C800C88A4046A
:104A2000FCD5CA8084894C800C88A404FCD5CA803B
:104A3000C4894C800C88A404FCD5CA80048A4C80AC
:104A40000C88A404FCD5CA80448A4C800C88A40439
:104A5000FCD5CA80848A4C800C88A404FCD5CA800A
:104A6000C48A4C800C88A404FCD5CA80048B4C807A
:104A70000C88A404FCD5CA80448B4C800C88A40408
:104A8000FCD5CA80848B4C800C88A404FCD5CA80D9
:104A9000C48B4C800C88A404FCD5CA80048C4C8048
:104AA0000C88A404FCD5CA80448C4C800C88A404D7
:104AB000FCD5CA800C889C430C80848CE4B24C806A
:104AC0000C88A404FCD5CA800C889C4380340C80DC
:104AD000194C65884D800D88AD04FCD5CA800D88C1
:104AE0009D430D80801E0078488008888004FCD596
:104AF000CA800888984380300880208848800888C9
:104B00008004FCD5CA801048808A488008888004C8
:104B1000FCD5CA80088840084000088030BD0000ED
:104B200038030800F56F0020FE6F002000700020A1
:104B30000270002004700020002900500670002040
:104B4000E001002000120050002300500749096CCA
:104B5000084710B5002803D00121890601F0A4FE02
:104B6000034841680120884710BD00006002002012
:104B70001C07080030B5A249A24B4A7E00200C7EDB
:104B80009D5C0346AC4205D1521CD2B24A76032A40
:104B900001D301204B7630BD70B59B4E04000ED082
:104BA000B078022806D1F078012801D0052801D17B
:104BB00000F0F1F8012C67D1002000F003F9B07883
:104BC00000280CD000258E4C012816D002283DD09C
:104BD00003280BD1FFF7CEFF002855D157E0F0781E
:104BE000012804D0052804D000F0ECF870BD0320A3
:104BF00000E0082000F0F3F870BDF07801280FD035
:104C00000528F9D17E48038CC28B818B408B01F043
:104C100087FB014610392161C889002814D005E0BE
:104C200000F000F92169C889002803D0103100F094
:104C3000BCF870BD0889754A904203D0734A30327F
:104C4000904201D10D811BE0084605E0F078012873
:104C500006D00528EDD12069103001F067FB13E084
:104C600000F08DF9206901890129F5D01F29F3D0C1
:104C70002129F1D0202902D1C1890329ECD0058155
:104C80002069C58100F087F800F004F870BD00F0DD
:104C900077F870BD10B55C48002181702038C0687D
:104CA0000121036858485A4AC01C9847042001F063
:104CB00001FE10BD10B5032001F002FE022001F03C
:104CC000F9FD10BD10B5032001F06EFC4C4C60697D
:104CD00001F064FC2068002805D0204601F052FC59
:104CE00001F000FB10BD00213F2001F001FB01F0AD
:104CF000EDFD0028F6D001F0EFFD0028F2D10820EC
:104D000001F0F0FD04223F21424801F0B9FC10BD42
:104D10004148C06A004710B54049032001F04AFCF1
:104D20003748C06880688047FFF7B4FF10BD70B592
:104D3000064614460D46022001F0D4FD681E304997
:104D40000670C968364A4B68611C984770BD2C488C
:104D5000C0688068004710B52948C068C0688047AF
:104D6000002801D0012010BD01F0B6FD002805D0BB
:104D7000284802223F21401C01F082FC002010BD87
:104D80002148032181702038C068012103681E4832
:104D90001F4A0838184710B5194C2069002803D05D
:104DA00001F0FCFB0020206110BD30B40C46164918
:104DB00002228A702039C968154A0B6801462046CC
:104DC00030BC184710B50E4900224A760876FFF726
:104DD000D1FEFFF7D5FF042001F06CFD10BD10B52A
:104DE000094901228A702039C968094A0B680146BD
:104DF0000548801F9847042001F074FD10BD000095
:104E000080040800A86F0020A004080030400000C3
:104E1000994B002002FC0000E0010020C54C00205E
:104E2000B54C0020AE48C06D0047FEB50026AD4829
:104E30000196C17E807E0C020443AA4FAA483D7FA2
:104E4000211A0095844240D012DCA848211A8442DD
:104E50003ED007DCA648201838D0A649C84210D159
:104E60001F2614E0012935D0A348C14209D10EE024
:104E7000A248102938D0302909D040292ED0D02975
:104E800038D03F200190681C9D4EC0B200909648DB
:104E90001038844267D094481030844263D09248DE
:104EA000844260D09048303084425CD08E4840309C
:104EB000844258D08C498C4B8C4881225031D2018D
:104EC0007033844219D1052D44D14CE00126DEE730
:104ED0002026DCE72126FEF7A9FDD8E70078052883
:104EE000D5D1FEF7B9FDD2E700780228CFD1FEF781
:104EF000CAFDCCE7FFF73DFBC9E78C4202D1032D89
:104F000002D130E094422ED09C422CD076488030A2
:104F1000844228D074489030844224D07248A03013
:104F2000844220D07048B03084421CD06E48C030DB
:104F3000844218D06C48D030844214D06A48DD30A6
:104F4000844210D06848D13084420CD06648B330D7
:104F5000844208D03F223046009B019901F0E0F9DD
:104F60001038386109E03F223046009B019901F07A
:104F7000D7F91038386104813869C581FEBD5848B9
:104F8000006E004710B55748574C016970340A89C4
:104F900008461030131BA24258D025DC594C131B75
:104FA000A24241D015DC554B202A37D005DC012A1E
:104FB0000ED01F2A0CD1042031E0212A08D04E4BFC
:104FC0002C3BDA4204D1C989052901D1FEF75BFCEB
:104FD00010BD102B1FD0402B23D0602B27D0702B5F
:104FE000F6D1FEF713FE10BD432B29D00ADC102B9F
:104FF0002FD0202B30D0302B31D0402BF3D1FEF7E7
:105000004AFF10BD502B18D0612B1CD06D2BF8D14E
:10501000FFF7DEF810BDFEF7FDFB10BD0320187092
:1050200010BDFEF772FC10BDFEF789FC10BDC989EA
:105030000329FBD1FEF744FD10BDFEF76FFE10BD46
:10504000FEF7BDFE10BDFFF77BF910BDFFF7ECFAD0
:1050500010BDFFF74AFB10BDFFF772FB10BDFFF755
:105060008EFB10BD1E49496E0847F0B51D4E00224B
:105070007569032429462B890B310127432B25D041
:1050800004DC242B1BD0422B0DD11BE0442B1FD062
:105090001B4D6D42EB4206D1124AD37E947E1A021A
:1050A000224304244F710E230B704C708F70CA7012
:1050B000120A0A71A41C047070690B30F0BD0C4A0E
:1050C000524201E0094A521E0424ECE7074AFBE77A
:1050D000064A6D8A521C06248D712D0ACD71E2E7B5
:1050E000E001002080040800204000001E20000095
:1050F000FDF3FFFFE6EBFFFF0EE0FFFFF56F002083
:1051000001FC000010400000FE494843012102E07C
:1051100000BF00BF491C8142FAD97047FA49FF28F5
:1051200004D8002805D0FF20013002E0884200D9D1
:1051300008460521090748800220E5E7F8B5002563
:10514000F24A00955178491C51700A2101F0FCF98E
:1051500001228A40D1B2002807D0012807D00228B6
:1051600008D0032809D00020F8BDE94807E0E84846
:10517000203004E0E648403001E0E5488030E64C6D
:10518000E44E6661A561226904231A432261EFF3AC
:105190001085012282F3108800F0F6F90090206952
:1051A000400840002061002D05D0012080F31088C8
:1051B0000098301AF8BD0020F8E7F8B50D4607460C
:1051C0001C46501B00F0BDFF0646781B00F0B9FFDF
:1051D000314600F078FF00900698001B00F0B1FF08
:1051E000009900F033FF009000F0B6FF0019F8BD01
:1051F000F1B5CA4E82B002277F1C7068FFB2BD00B5
:105200000090A8198038C36FC44830384268281805
:105210008038C16FC248FFF7D0FF0446FF2802DC88
:10522000FF24013403E0B848844200DD0446745191
:105230007059FFF773FF0298FFF780FF0146B748E8
:10524000303841514259B1494A604159B4480A384D
:10525000814201DA0A2FCFD3AC48002141702046A9
:10526000FEBDF1B5AA4DAA49A94C009E0320A84A4B
:105270000002203540318034330001F01BF8261441
:105280001A20262C32383ED3D3444A50565C62D37F
:10529000D3D3D3686E747A80868C92989EA4AAB079
:1052A000B6BCC2C8CED3D1888143FF310131D18091
:1052B000B8E011898143FF3101311181B2E0518998
:1052C0008143FF3101315181ACE091898143FF314C
:1052D00001319181A6E0D1898143FF310131D18132
:1052E000A0E0118A8143FF31013111829AE0518A95
:1052F0008143FF310131518294E0918A8143FF3132
:10530000013191828EE0E9888143FF310131E980EA
:1053100088E029898143FF310131298182E069894F
:105320008143FF31013169817CE0A9898143FF31EB
:105330000131A98176E0E9898143FF310131E981B9
:1053400070E0298A8143FF31013129826AE0CA88ED
:105350008243FF320132CA8064E00A898243FF320D
:1053600001320A815EE04A898243FF3201324A817A
:1053700058E08A898243FF3201328A8152E0CA8929
:105380008243FF320132CA814CE00A8A8243FF32F3
:1053900001320A8246E04A8A8243FF3201324A825F
:1053A00040E08A8A8243FF3201328A823AE0CA8A26
:1053B0008243FF320132CA8234E00A8B8243FF32D9
:1053C00001320A832EE0E1888143FF310131E1801F
:1053D00028E021898143FF310131218122E0618967
:1053E0008143FF31013161811CE0A1898143FF319B
:1053F0000131A18116E0E1898143FF310131E18171
:1054000010E0218A8143FF31013121820AE0618A63
:105410008143FF310131618204E0A18A8143FF3180
:105420000131A1823D4D00202E46303E2C460146E2
:1054300030348200A950A150B150401CC0B20A289B
:10544000F7D93848A860A868FFF768FE0098FFF70A
:1054500075FEE060E16832482C4F81422FDDAF20BD
:105460008000A8602F486860A868FFF757FE009882
:10547000FFF764FEA060E0687060A068B060022082
:105480003870A1682648814254DDFF200130A860B1
:10549000AF2080006860A868FFF740FE0098FFF723
:1054A0004DFE6060A06870606068B0600120387078
:1054B000A0681B49503988423CDA012044E0194871
:1054C000A8601920800168606868FFF727FE0098CF
:1054D000FFF734FE206120697060E068B06003204F
:1054E000387021690E48814224DA19208001A860B1
:1054F000054868606868FFF711FE0098FFF71EFE18
:10550000606111E0F1060000FF070000107000204C
:1055100000300050FFFFFF0000E000E0649000203A
:10552000FC117A007E040000606970602069B06040
:105530000420387039780020042905D12169114AE6
:10554000914201DD012100E00021084305D0002047
:10555000FFF7E4FD0120C043F8BD0098FFF748FEC7
:10556000084978685A39884205DA0020FFF7D6FDE5
:105570000020C043F8BD052000074088B860B86827
:10558000F8BD00004C127A003EB50D4D6D1E14D0D2
:1055900002880A42FAD16D1E0FD002880A42FAD060
:1055A000084A13680124234313606D1E05D0028846
:1055B0000A42FAD1044A10683EBD00203EBD0000F8
:1055C000C0C62D0010E000E018E000E010B5044671
:1055D000C1B2062000F0C1F8210A072000F0BDF892
:1055E00000F0B0F810BD10B50446C1B2002000F0C4
:1055F000B4F8210A012000F0B0F800F0A3F810BDC3
:1056000010B50024002803D00121401E81408CB237
:10561000E1B2042000F0A1F8210A052000F09DF875
:1056200000F090F810BD10B50446C1B2022000F0A1
:1056300094F8210A032000F090F800F083F810BDE0
:10564000C10710B5C90F082000F087F800F07AF8FC
:1056500010BD10B500F03EF80020FFF7F1FF00206C
:10566000FFF7E1FF0020FFF7CBFF0020FFF7BBFFB4
:105670000020FFF7ABFF10BD10B501460B2000F076
:105680006CF800F05FF810BD10B50446002000F083
:1056900076F8012000F073F87D20C000604300F030
:1056A00079F8002000F06BF810BD10B5002109203A
:1056B00000F053F800F046F80121092000F04DF801
:1056C00000F040F80021092000F047F800F03AF817
:1056D00010BD00002E4900220A8003200002C8806D
:1056E000088148818881C881088248828882284947
:1056F00040390A80C880088148818881C881088231
:105700007047234908807047214940390A880007BB
:1057100012091201000F02430A8070471C4A403AE6
:1057200011881023C0079943C00E014311807047B0
:10573000174A403A11882023C0079943800E01433D
:105740001180704700B50020FFF7F2FF0120FFF73E
:10575000EFFF0020FFF7ECFF00BD30B505460C461B
:105760000020FFF7DBFF0A4804802846FFF7CCFF44
:105770000120FFF7D3FF0020FFF7D0FF30BD00B5B9
:1057800001460A20FFF7E9FFFFF7DCFF00BD00003C
:105790008030005001010748814200D90146064887
:1057A0000022026141618261052101610169C90331
:1057B000FCD57047FFFFFF0000E000E07CB52E4DF8
:1057C000002428782646012806D12C48406B002862
:1057D00002D12E70FEF73AF829480188294A12882A
:1057E000914214D32978012911D1068004216846F9
:1057F00001700E214170032181700121C170224985
:1058000081800022062101F013F8FEF70FF900F065
:10581000A5FD1E4D2888012809D100F0C3FD1C49B3
:105820000880012000F0C4FD00F0C8FD2E80FAF7CA
:10583000BFFE0100174807D001684A1E0260002918
:1058400000DD012420467CBD012464210160F9E7CC
:1058500000207047032809D105200007418A8022D3
:1058600091434182418A042291434182704710B59D
:10587000FAF76CFE10BD0000F56F002090030800E1
:10588000FC6F0020FA6F0020404000000A700020EA
:10589000780408001C70002010B500F081FA00F0B8
:1058A00004FB00F073FB00F094FB00F02FF800F015
:1058B00053F800F00BFA10BD10B500F04FFA00F0ED
:1058C0007AFA00F043FB00F061FB00F077FB00F098
:1058D0005EF8FDF706FB10BD10B5040014D01A21C8
:1058E00000F0BEFF204600F080F9204600F0BAF933
:1058F00000F04CFB20460E3000F07CFB00F006F878
:105900002046143000F049F810BD000008B5012011
:10591000032200900023120205210220FCF7FFFD64
:105920003220FAF7B5FE0123002219464820FDF780
:10593000B1FA08BD10B5FDF758FB002801D00020D2
:1059400010BD012010BD10B5FDF714FB002801D0DB
:10595000002010BD012010BD08B5FF206946713040
:10596000FFF7F1FF68460078112801D0002008BD3C
:1059700002212E48FFF7DEFF012008BD10B5FDF71C
:1059800024FB002801D0002010BD012010BD10B55F
:1059900005210220FCF7AFFD10BDF0B506468DB025
:1059A000002008902021684600F0AEFC1F486946A0
:1059B0001038FFF7C8FF68460078002834D0012867
:1059C00032D1212008A90001FFF7BDFF08A8017806
:1059D0004D06C8096D0E002826D1002D24D02A4678
:1059E00013496846FFF7CAFF00246F462846062180
:1059F00000F0AAFD014615E02046062250433A5C1D
:105A0000C019D2093270427883781207120D1A43F6
:105A100072804278C0781209120112010243641C9C
:105A2000B280E4B2A142E7D80DB0F0BD110600008B
:105A3000110200001FB50021002810D002206A4684
:105A40001073082050730122032013460092019125
:105A500002900022114603A8FCF716FF1FBD6A46FC
:105A600011730220EEE7F8B50D4606468021084383
:105A7000044617460020FCF74CFFFCF7F7FE2046D3
:105A8000FCF771FF002405E03046FCF76CFF28703E
:105A9000641C6D1CBC42F7DBFCF7EFFE0020F8BD78
:105AA0001CB50020694608700871FFF7C3FF01228A
:105AB00069460020FFF7D7FF0120FFF7BBFF012257
:105AC00001A90020FFF7CFFF69460878FA2802D124
:105AD00008790F2801D000201CBD01201CBD10B585
:105AE0000020FFF7A7FF0C210F2000F045F90D2142
:105AF000102000F041F90021132000F03DF90021B1
:105B0000112000F039F90021122000F035F90021B0
:105B1000162000F031F90021172000F02DF90021A6
:105B2000192000F029F900211A2000F025F9082198
:105B30001B2000F021F900211E2000F01DF900219A
:105B4000212000F019F90921222000F015F9302157
:105B5000232000F011F98121242000F00DF90F21FC
:105B6000252000F009F9C021262000F005F91021B8
:105B7000272000F001F91421282000F0FDF8102161
:105B8000292000F0F9F80521202000F0F5F80F2178
:105B9000182000F0F1F810BD10B50120FFF74AFF02
:105BA00000210F2000F0E8F80321102000F0E4F8B5
:105BB0000021132000F0E0F880213E2000F0DCF806
:105BC000A0213D2000F0D8F80421182000F0D4F8DE
:105BD0004021152000F0D0F880211E2000F0CCF8E4
:105BE0000021162000F0C8F810BD10B58AB0044698
